:020000040800F2
:10000000C807002039160008690200086B020008C2
:100010006F02000873020008770200080000000069
:100020000000000000000000000000007B0200084B
:100030007D020008000000007F0200088102000825
:1000400053160008531600085316000853160008EC
:1000500053160008531600085316000853160008DC
:1000600053160008531600085316000853160008CC
:1000700053160008531600085316000853160008BC
:1000800053160008531600085316000853160008AC
:10009000531600085316000853160008531600089C
:1000A000531600085316000853160008531600088C
:1000B000531600085316000853160008531600087C
:1000C000531600085316000853160008531600086C
:1000D00053160008AD150008531600085316000803
:1000E000531600085316000853160008531600084C
:1000F000531600085316000853160008531600083C
:10010000531600085316000853160008531600082B
:10011000531600085316000853160008531600081B
:10012000531600085316000853160008531600080B
:1001300000F002F800F03AF80AA090E8000C8244BF
:100140008344AAF10107DA4501D100F02FF8AFF29C
:10015000090EBAE80F0013F0010F18BFFB1A43F0A5
:10016000010318473455000054550000103A24BFCD
:1001700078C878C1FAD8520724BF30C830C144BF0C
:1001800004680C607047000000230024002500264E
:10019000103A28BF78C1FBD8520728BF30C148BFEA
:1001A0000B6070471FB51FBD10B510BD03F0DCFB21
:1001B0001146FFF7F7FF00F009F803F0FAFB03B46C
:1001C000FFF7F2FF03BC01F097F9000008B54FF408
:1001D000A06001F051FA01F025F94FF4E13001F08F
:1001E00099F900F03BFE03F066FA00F05DFE01F0C5
:1001F0000BF900F019FE2EE00321002000F02DFF86
:10020000814603F00DFF044603F093FD0746124AB2
:10021000124B03F0A5FD054603F05EFD1049088072
:10022000122005230090084602889121DC2000F06E
:1002300038FB0B4801880B4803F000F90848018897
:10024000084803F001F9122005230022CD21009077
:10025000DC2000F026FBCFE708AC1C5A643BCF3F04
:1002600000000020002C0140704700BFFEE700BFE7
:10027000FEE700BFFEE700BFFEE77047704770472C
:10028000704700000CB50020019000906C48006899
:1002900040F480306A49086000BF6948006800F493
:1002A000003000900198401C0190009818B9019806
:1002B000B0F5A06FF1D16248006800F4003010B1D1
:1002C0000120009001E0002000900098012843D117
:1002D0005C48006840F010005A4908600846006811
:1002E00020F0030008600846006840F00200086043
:1002F000534840685249486008464068486008468C
:10030000406840F4806048600846406820F47C10F3
:1003100048600846406840F4E810486008460068B5
:1003200040F08070086000BF4548006800F0007031
:100330000028F9D04248406820F003004049486056
:100340000846406840F00200486000BF3C484068F2
:1003500000F00C000828F9D10CBD10B5FFF792FF92
:1003600010BD10B53648006840F0010034490860FF
:1003700008464068344908403149486008460068EA
:10038000324908402E4908600846006820F4802061
:1003900008600846406820F4FE0048604FF41F00E3
:1003A0008860FFF7DAFF4FF000602949086010BD50
:1003B00010B5002100200022214B5B6803F00C01E6
:1003C00021B1042906D0082928D107E0214B224C6D
:1003D000236027E01F4B204C236023E0184B5B6811
:1003E00003F47010164B5B6803F48032022303EBB6
:1003F000904022B9194B4343174C23600DE0104B3A
:100400005B6803F4003323B1144B4343124C236065
:1004100003E0104B4343104C236003E00D4B0E4CA4
:10042000236000BF00BF064B5B68C3F303130C4C93
:10043000E15C094B1B68CB40074C236010BD0000FA
:1004400000100240002002400000FFF8FFFFF6FE0F
:1004500008ED00E000127A000400002000093D00D1
:100460000800002070B505460E4614463146284661
:1004700003F05CF8204603F043F870BD2DE9F05F0F
:1004800006460F4614461D46A01B401C1FFA80FA64
:10049000E81B401C1FFA80FB681E83B2601E82B2FC
:1004A0003946304603F074F84FF000080FE04FF083
:1004B000000906E00A9803F015F809F101001FFA97
:1004C00080F9D145F6DB08F101001FFA80F8D84524
:1004D000EDDBF9484088401E83B2F7480088401E93
:1004E00082B20021084603F053F8BDE8F09F2DE9E1
:1004F000FF4F85B081468A460020049003900798FC
:10050000A0EB09050898A0EB0A06CDF80890CDF8F5
:1005100004A0002D01DD012705E00DB9002702E050
:100520004FF0FF376D42002E02DD4FF0010806E06C
:1005300016B94FF0000802E04FF0FF387642B5429E
:1005400001DD2C4600E034464FF0000B21E0019A1B
:1005500091B2029A90B203F00FF8049828440490E4
:100560000398304403900498A04205DD0498001BD2
:1005700004900298384402900398A04205DD039845
:10058000001B03900198404401900BF101001FFAF9
:1005900080FB601C8345DADD09B0BDE8F08F2DE9F2
:1005A000F04104460D4616461F462B463246294664
:1005B0002046FFF79CFF3B46224629462046FFF790
:1005C00096FF3B46324639462046FFF790FF3B46B2
:1005D000324629463046FFF78AFFBDE8F081F8B57C
:1005E00004460D4616461F46B44800883B46324630
:1005F000294600902046FFF741FFF8BD2DE9F04164
:1006000004460D4616461F46DDF81880EA1991B2D9
:10061000A21990B24246FFF725FFEA1991B2A21B38
:1006200090B24246FFF71EFFEA1B91B2A21990B2A8
:100630004246FFF717FFEA1B91B2A21B90B2424657
:10064000FFF710FFAA1991B2E21990B24246FFF7E4
:1006500009FFAA1991B2E21B90B24246FFF702FFCE
:10066000AA1B91B2E21990B24246FFF7FBFEAA1B09
:1006700091B2E21B90B24246FFF7F4FEBDE8F08172
:100680002DE9FF4F81B0824617469846DDF838B015
:10069000002445464FEA4800C0F10306BBF1000FB5
:1006A0001FD01BE0A14608E04B462246009750466B
:1006B0000299FFF7A3FF09F10109A945F4DD002E16
:1006C00004DA042000FB0460861D06E0601B0421A0
:1006D00001FB006000F10A066D1E641CAC42E1DD06
:1006E00018E015E02B462246009750460299FFF786
:1006F00085FF002E04DA042000FB0460861D06E05E
:10070000601B042101FB006000F10A066D1E641CE1
:10071000AC42E7DD05B0BDE8F08F2DE9FF4F83B0B7
:1007200081468A469346DDE9106464480088029059
:10073000A6F12000C6B204EBD47009EB6000401EA5
:1007400082B20AEB0400401E83B25146484601942F
:1007500002F01EFF129850BB002525E00C2C07D19B
:1007600006EB4600564901EB800010F8058004E0D6
:10077000544800EB061010F8058000270DE008F043
:10078000010018B1584602F0BBFE02E0069802F0E4
:10079000B7FE4FEA6808781CC7B204EBD471B7EB18
:1007A000610FECDB681CC5B2A542D7DB2DE000254C
:1007B00029E00C2C07D106EB4600414901EB8000F3
:1007C00010F8058004E03F4800EB061010F80580A3
:1007D000002711E03948A0F800B008F0010038B156
:1007E0000AEB050291B209EB070290B202F0C4FED7
:1007F0004FEA6808781CC7B204EBD471B7EB610FFD
:10080000E8DB681CC5B2A542D3DB2C4902980880FE
:1008100029484088401E83B227480088401E82B283
:100820000021084602F0B4FE07B0BDE8F08F2DE9C4
:10083000FE4306460F4615461C46DDF828801DE09F
:100840001D480088401EB04204DB1B484088401E03
:10085000B84201DABDE8FE8320788DE821011A480C
:1008600003881648028839463046FFF756FF284667
:1008700005EBD07106EB61018EB2641C20787E28F6
:1008800002DC20782028DBDA00BFE3E710B502465F
:10089000012000E050430B1EA1F10104E1B2F9D1A7
:1008A00010BD2DE9FF4F83B0074691461E46109CB0
:1008B0004FF0000A00254DE0540100204A000020BE
:1008C0000A4200087E4600084C000020701B401EB3
:1008D000C1B20A20FFF7DAFFB9FBF0F00A21B0FB42
:1008E000F1F201FB1208BAF1000F1BD1701EA842F1
:1008F00018DDB8F1000F13D100202021A346CDE967
:100900000014029004EBDB71491001FB057188B201
:10091000FC490B88FC490A880499FFF7FEFE17E0A2
:100920004FF0010A002108F13000C0B2A346CDE922
:100930000141009004EBDB71491001FB057188B2A5
:10094000F0490B88F0490A880499FFF7E6FE00BFDA
:10095000681CC5B2B542B9DB07B0BDE8F08F2DE920
:10096000FC5F0546884691469A46DDF830B0009512
:100970002E20019000245FE004EB0410E34911F8FD
:1009800010009BF80010884253D104EB0410DF499B
:1009900001EB400040789BF80110884249D108F1F2
:1009A0000F0083B205F10F0082B24146284602F0E3
:1009B000EFFD00263BE0002734E00D9890B904EBF2
:1009C0000410D24901EB4000801C805D8021394138
:1009D000084018B1484602F093FD21E0504602F06D
:1009E0008FFD1DE0C848A0F8009004EB0410C74933
:1009F00001EB4000801C805D80213941084018B126
:100A00004146284602F0B8FD681C85B20098281AB5
:100A1000102805D1009D08F101001FFA80F803E0BD
:100A2000781CC7B2082FC8DB00BF701CC6B2202ECE
:100A3000C1DB00BF601C84B2019884429CDBB448D7
:100A40004088401E83B2B2480088401E82B2002116
:100A5000084602F09DFDBDE8FC9F2DE9FC5F0546C0
:100A6000884691469A46DDF830B0009507200190FF
:100A7000002467E004EB840000EB4410A54911F862
:100A800010009BF80010884259D104EB840000EB61
:100A90004410A04901EB400040789BF801108842C7
:100AA0004DD108F1170083B205F1170082B241461B
:100AB000284602F06DFD00263FE0002738E00D9843
:100AC000A0B904EB840000EB4410924901EB400014
:100AD000801C805D80213941084018B1484602F0F1
:100AE0000FFD23E0504602F00BFD1FE08648A0F802
:100AF000009004EB840000EB4410864901EB4000B9
:100B0000801C805D80213941084018B1414628464B
:100B100002F032FD681C85B20098281A182805D109
:100B2000009D08F101001FFA80F803E0781CC7B2AD
:100B3000082FC4DB00BF701CC6B2482EBDDB00BF4F
:100B4000601C84B20198844294DB71484088401E46
:100B500083B26F480088401E82B20021084602F02E
:100B600017FDBDE8FC9F2DE9FC5F054688469146D0
:100B70009A46DDF830B000950420019000245FE033
:100B800004EB8410644911F810009BF800108842AF
:100B900053D104EB8410604901EB400040789BF88E
:100BA0000110884249D108F11F0083B205F11F00EE
:100BB00082B24146284602F0EBFC00263BE00027CB
:100BC00034E00D9890B904EB8410534901EB4000D8
:100BD000801C805D80213941084018B1484602F0F0
:100BE0008FFC21E0504602F08BFC1DE04648A0F847
:100BF000009004EB8410484901EB4000801C805DAC
:100C000080213941084018B14146284602F0B4FC21
:100C1000681C85B20098281A202805D1009D08F18B
:100C200001001FFA80F803E0781CC7B2082FC8DB68
:100C300000BF701CC6B2802EC1DB00BF601C84B236
:100C4000019884429CDB32484088401E83B2304881
:100C50000088401E82B20021084602F099FCBDE8DF
:100C6000FC9F2DE9FF4F83B0064688469146DDE99B
:100C70001147109DB2464FF0000B7DE0BBF1000F15
:100C80004CD104EBD471224A1288A2EB6101B1422B
:100C900004DB1F494988091B414502DA07B0BDE85A
:100CA000F08F2878802802DD4FF0010B64E028786F
:100CB0000D2806D108EB04001FFA80F856466D1C7B
:100CC0001EE0102C0DDD102128788DE883004A46A7
:100CD00041463046069BFFF720FD06F1080086B22C
:100CE0000EE028788DE891004A4641463046069B42
:100CF000FFF713FD204604EBD07106EB61018EB2C5
:100D00006D1C39E04C0000204A0000206E4C0008A9
:100D1000540100208A52000890540008414800887D
:100D2000001BB04204DB3F484088001B404500DA0E
:100D3000B4E74FF0000B202C08D1CDE900574A460C
:100D400041463046069BFFF70EFF12E0182C08D1F3
:100D5000CDE900574A4641463046069BFFF77DFEE7
:100D600007E0CDE900574A4641463046069BFFF76B
:100D7000F6FDAD1C301986B2287800287FF47EAFCE
:100D800000BF8BE72DE9FF4F83B004460F46904626
:100D9000DDE9119A109D284602F0BFFD86B2214977
:100DA0000988A1EBC60000EBD071C1F34F0B04EB37
:100DB0000B0188B28DE8200642463946069BFFF7B4
:100DC00050FF07B0BDE8F08F2DE9F04706460F460B
:100DD000154607F1270083B206F1270082B2394693
:100DE000304602F0D5FB00240AE015F8149005EB1C
:100DF000440090F8018049EA082002F081FB641C5D
:100E0000B4F5C86FF1DB07484088401E83B205483F
:100E10000088401E82B20021084602F0B9FBBDE8FE
:100E2000F08700005401002008B54FF482734FF49E
:100E3000C87264215020FFF7B2FBB4234FF4C8728C
:100E400019465020FFF753FB0120042300226E2196
:100E500000905A20FFF714FC08BD000008B50121DE
:100E6000482001F0BBF92020ADF8000010208DF8DB
:100E7000030003208DF802006946094800F0F2FEE5
:100E80002021074800F09BFF2020ADF800006946B4
:100E9000044800F0E7FE2021024800F090FF08BD62
:100EA000000C01400018014000B587B001214FF44B
:100EB000037001F093F94FF4004001F0F3F8FF20C4
:100EC000ADF8040000208DF8070001A9FE4800F0ED
:100ED000C9FE0320ADF8040000208DF8070001A929
:100EE000FA4800F0BFFEFA4800F034FC00200290FF
:100EF0008DF80C008DF80D004FF460200490002058
:100F000005900A208DF8180002A9F14800F049FC6C
:100F10000121EF4800F071FCED4800F090FC00BFAB
:100F2000EB4800F091FC0028FAD1E94800F096FC6B
:100F300000BFE74800F097FC0028FAD107B000BDD9
:100F400010B50446072301222146E14800F0C1FC08
:100F50000121DF4800F091FC00BF0221DC4800F0D5
:100F6000FDFD0028F9D0DA4800F01AFD10BD2DE98A
:100F7000F04107460C460025002608E03846FFF7FA
:100F8000DFFF0544052000F08AFA701CC6B2A642B5
:100F9000F4DBB5FBF4F080B2BDE8F08110B50020C1
:100FA000CC490880CC490880FFF7CAFFCB490968C3
:100FB000081ACB4908600120FFF7C2FFC74909683A
:100FC000081AC74948600220FFF7BAFFC3490968F9
:100FD000081AC34988600320FFF7B2FFBF490968B8
:100FE000081ABF49C8600420FFF7AAFFBB49096877
:100FF000081ABB4908610520FFF7A2FFB749096835
:10100000081AB74948610620FFF79AFFB3490968F3
:10101000081AB34988610720FFF792FFAF490968B2
:10102000081AAF49C8610A20FFF78AFFAB4909686F
:10103000081AAB4908620B20FFF782FFA74909682D
:10104000081AA74948624FF47A7000F028FA002085
:10105000A0490880A049088010BD2DE9F04FE9B0F3
:1010600083460D46002407E00BF0FF00FFF768FF02
:1010700004A941F82400641CAC42F5DB4FF0000ADF
:10108000049EDDF81090002414E004A850F8240019
:10109000B04202DD04A850F8246004A850F82400EF
:1010A000484502DA04A850F8249004A850F8240017
:1010B0008244641CAC42E8DBA81E02F03AFECDE993
:1010C0000201AAEB0601A1EB090002F032FECDE914
:1010D0000001DDE9022302F0A7FC074688463846F6
:1010E000414602F06FFC69B0BDE8F08F2DE9F04198
:1010F00096B07B49086802F0AFFF07460A2100203E
:10110000FFF7ABFF8046394602F028FF064602F0A3
:1011100087FF02907249486802F09EFF07460A2145
:101120000120FFF79AFF8046394602F017FF064676
:1011300002F076FF03906A49886802F08DFF074647
:101140000A210220FFF789FF8046394602F006FF98
:10115000064602F065FF04906149C86802F07CFF12
:1011600007460A210320FFF778FF8046394602F040
:10117000F5FE064602F054FF05905949086902F051
:101180006BFF07460A210420FFF767FF80463946B8
:1011900002F0E4FE064602F043FF0690504948691B
:1011A00002F05AFF07460A210520FFF756FF804646
:1011B000394602F0D3FE064602F032FF0790484956
:1011C000886902F049FF07460A210620FFF745FF1C
:1011D0008046394602F0C2FE064602F021FF089022
:1011E0003F49C86902F038FF07460A210720FFF788
:1011F00034FF8046394602F0B1FE064602F010FF89
:1012000009903749086A02F027FF07460A21084675
:10121000FFF723FF8046394602F0A0FE064602F0A3
:10122000FFFE0A902E49486A02F016FF07460A217F
:101230000B20FFF712FF8046394602F08FFE06466C
:1012400002F0EEFE0B901220009005235021782032
:10125000029AFFF726FB1220009005235021DC2084
:10126000039AFFF71EFB12200090052350218800EF
:10127000049AFFF716FB1220009005234FF48771A4
:101280007820099AFFF70DFB1220009005234FF4F8
:101290008771DC20089AFFF704FB122000900523D9
:1012A0004FF487719801079AFFF7FBFA122000901C
:1012B00005238C2119200B9AFFF7F3FA12200090D6
:1012C0000523D22119200DE0000801400010014043
:1012D000002401401A0000201E00002020000020F1
:1012E000500000200A9AFFF7DCFA12200090052334
:1012F0008C2140F29510059AFFF7D3FA1220009046
:101300000523D22140F29510069AFFF7CAFA0299F6
:101310000B98084403990844049908440599084423
:10132000052190FBF1F4DDE9060108440899084421
:10133000099908440A990844052190FBF1F5122007
:101340000523224691210090DC20FFF7AAFA122003
:1013500005232A46CD210090DC20FFF7A2FA16B023
:10136000BDE8F08108B50121C80200F037FF012176
:10137000042000F033FF4FF41060ADF80000182097
:101380008DF8030003208DF802006946234800F021
:1013900069FC08BD30B587B005460C46ADF8145061
:1013A000ADF810400020ADF81600ADF8120004A909
:1013B0001B4801F04FFA7020ADF800000120ADF895
:1013C00002000020ADF80600ADF808006946144898
:1013D00001F07DFA6946124801F053FB08211048DC
:1013E00001F0C4FE08210E4801F0DFFE01210C4887
:1013F00001F08CFE01210A4801F088FD0121084816
:1014000001F090FD07B030BD10B5FFF7ABFF002134
:101410004FF47A70FFF7BEFF10BD000000080140D6
:10142000002C014010B56FF0040000F074F92E4854
:1014300000682E49B0FBF1F02D490870084600788D
:1014400000EB4001C1EBC0104FF6FF7101EAC00094
:101450002849088010BD0146254A12784A434FF0BA
:10146000E0235A6100229A611A46126942F0010291
:101470001A6100BF4FF0E022106900F001021AB1BA
:1014800000F48032002AF5D04FF0E022126922F0F9
:1014900001024FF0E0231A6100229A617047014671
:1014A000144A12884A434FF0E0235A6100229A619D
:1014B0001A46126942F001021A6100BF4FF0E022A1
:1014C000106900F001021AB100F48032002AF5D050
:1014D0004FF0E022126922F001024FF0E0231A617E
:1014E00000229A61704700000400002000127A0078
:1014F0002C0000202E00002000BF704700BF4A4A89
:10150000128802F04002002AF9D0C2B2464B1B1DDD
:101510001A80704710B586B00446012144F20400D9
:1015200000F05CFE4FF40070ADF8140003208DF85D
:10153000160018208DF8170005A93C4800F092FB12
:101540004FF48060ADF8140004208DF8170005A951
:10155000364800F087FB25208DF8000003208DF829
:1015600001008DF8020001208DF80300684600F0AC
:1015700088F801940020ADF80800ADF80A00ADF835
:101580000C00ADF810000C20ADF80E0001A92648A3
:1015900000F0CBFE012240F22551234800F05DFF10
:1015A0000121214800F04DFF06B010BD10B540F2FA
:1015B00025511D4801F036F810B31B4800F0B2FF6A
:1015C000C4B21B48008800F40040C8B9184800881D
:1015D00000F4804060B10A2C03D000201449088038
:1015E00020E01348008840F400401149088019E0C9
:1015F0000D2C06D10E48008840F480400C4908802C
:1016000010E00B480088C0F30D000A490C5408484C
:101610000088401C0649088008460088C72801DD6C
:101620000020088010BD0000003801400008014083
:10163000340000208C0000200948804709480047FA
:10164000FEE7FEE7FEE7FEE7FEE7FEE7FEE7FEE772
:10165000FEE7FEE704480549054A064B70470000CF
:101660006303000831010008C8010020C8070020FA
:10167000C8030020C803002031490143314A1160EA
:10168000704770B5002100230F22C47804B32D4C9D
:10169000246804F4E064C4F5E064210AC1F10403A1
:1016A000CA40447804FA03F18478144021430901C4
:1016B000254C0678A155047804F01F050124AC40A0
:1016C00005786D11AD0005F1E025C5F8004109E090
:1016D000047804F01F050124AC401C4D06787611F7
:1016E00045F8264070BD1A4A0A400243154B1B1F9D
:1016F0001A60704739B1134A121D12680243114B28
:101700001B1D1A6006E00F4A121D126882430D4B22
:101710001B1D1A607047042808D14FF0E0210969A9
:1017200041F004014FF0E022116107E04FF0E021A9
:10173000096921F004014FF0E022116170470000B7
:101740000000FA050CED00E000E400E080E100E0BC
:1017500080FFFF1F10B50446FA48844208D10121DA
:10176000401500F055FD0021601500F051FD17E017
:10177000F548844208D10121001500F049FD0021FF
:10178000201500F045FD0BE0F048844208D101210E
:10179000C80300F03DFD00214FF4004000F038FD8B
:1017A00010BD30B50246002000235068E84C2040B0
:1017B0000D790C6844EA0524204350609068E54C9C
:1017C0002040D1E902542C434D7944EA450420439A
:1017D0009060D06A20F470000C7C641EE4B2234355
:1017E00040EA0350D06230BD0021016001714171B7
:1017F0008160C16001210174704721B1826842F0AB
:101800000102826003E0826822F001028260704778
:1018100021B1826842F48072826003E0826822F41F
:1018200080728260704710B50023CBB21AB1446851
:101830001C43446002E044689C43446010BD8168DE
:1018400041F0080181607047014600208A6802F07B
:1018500008020AB1012000E000207047816841F0D1
:10186000040181607047014600208A6802F004028A
:101870000AB1012000E00020704721B1826842F4E3
:10188000A002826003E0826822F4A00282607047B6
:10189000014600208A6802F480020AB1012000E0BB
:1018A0000020704710B50A4600210023416821F44A
:1018B0006041531E41EA4331416010BD21B142688D
:1018C00042F40062426003E0426822F40062426037
:1018D0007047F0B504460D4600200021092D11DDAA
:1018E000E068A5F10A0606EB4607072606FA07F1A7
:1018F0008843A5F10A0606EB460603FA06F10843FB
:10190000E0600CE0206905EB4507072606FA07F1C1
:10191000884305EB450603FA06F108432061072AD0
:101920000FDA606B561E06EB86071F2606FA07F1D4
:101930008843561E06EB860605FA06F108436063E7
:1019400022E00D2A0FDA206BD61F06EB86071F2632
:1019500006FA07F18843D61F06EB860605FA06F15C
:101960000843206310E0E06AA2F10D0606EB86074B
:101970001F2606FA07F18843A2F10D0606EB86063C
:1019800005FA06F10843E062F0BD21B1826842F435
:101990008012826003E0826822F4801282607047C5
:1019A0000146C86C80B2704766484C30006870478A
:1019B00021B1426842F48062426003E0426822F44E
:1019C00080624260704721B1426842F480524260B6
:1019D00003E0426822F48052426070470A460021C8
:1019E000816821F4E04111438160704721B1826830
:1019F00042F40042826003E0826822F40042826086
:101A0000704721B1826842F40212826003E082686A
:101A100022F4021282607047014600208A6802F4B4
:101A200000120AB1012000E000207047F0B5044622
:101A30001546002000220026092911DDE068A1F1E9
:101A40000A0707EB470C072707FA0CF29043A1F1AE
:101A50000A0707EB470703FA07F21043E0600CE0C0
:101A6000206901EB410C072707FA0CF2904301EBC8
:101A7000410703FA07F210432061A06BC0F301563F
:101A8000EF1C06F1010CA7EB0C0707EB870C1F27D7
:101A900007FA0CF29043EF1C06F1010CA7EB0C07C0
:101AA00007EB870701FA07F21043A063F0BD10B5FA
:101AB0000A4600210023816B21F44011531E41EAA4
:101AC0000351816310BD08B5002300930090009B73
:101AD0000B440093009B1A6008BD08B50246002025
:101AE0000090009201F12800009B1844009000989B
:101AF000006880B208BD0A4600214168164B1940B3
:101B00001143416070474162826270470A4600217A
:101B1000416821F01F0111434160704740B10949FC
:101B20000831096841F40001064A0832116007E0F3
:101B300004490831096821F40001024A08321160A1
:101B4000704700000024014000280140003C014093
:101B5000FFFEF0FFFDF7F1FFFFFD3FFF0246002013
:101B600013680B400BB1012000E000207047CA430E
:101B70000260704770B502460020002300240B125B
:101B80005568CEB205EA060415681D4015B10CB1C2
:101B9000012000E0002070BD00220A12D343036040
:101BA0007047000010B50446CC48844208D101219A
:101BB000042000F02DFB0021042000F029FB46E06A
:101BC000C748844208D10121082000F021FB0021F0
:101BD000082000F01DFB3AE0C248844208D10121F0
:101BE000102000F015FB0021102000F011FB2EE06A
:101BF000BD48844208D10121202000F009FB0021CA
:101C0000202000F005FB22E0B848844208D10121E1
:101C1000402000F0FDFA0021402000F0F9FA16E023
:101C2000B348844208D10121802000F0F1FA00215C
:101C3000802000F0EDFA0AE0AE48844207D101218D
:101C4000801500F0E5FA0021A01500F0E1FA10BDC2
:101C500010B50121084600F0DBFA0021012000F058
:101C6000D7FA10BD2DE9F0410246002500260020DC
:101C700000230024002791F803C00CF00F0591F811
:101C800003C00CF0100CBCF1000F03D091F802C09F
:101C90004CEA050591F800C0BCF1000F31D0146882
:101CA00000202BE04FF0010C0CFA00F3B1F800C05B
:101CB0000CEA03069E4220D183004FF00F0C0CFA71
:101CC00003F7BC4305FA03FC4CEA040491F803C093
:101CD000BCF1280F06D14FF0010C0CFA00FCC2F841
:101CE00014C00AE091F803C0BCF1480F05D14FF0D1
:101CF000010C0CFA00FCC2F810C0401C0828D1D31B
:101D00001460B1F800C0BCF1FF0F34DD546800204E
:101D10002EE000F1080C4FF0010808FA0CF3B1F8BE
:101D200000C00CEA03069E4221D183004FF00F0C45
:101D30000CFA03F7BC4305FA03FC4CEA040491F8DF
:101D400003C0BCF1280F05D100F1080C08FA0CF80B
:101D5000C2F8148091F803C0BCF1480F07D100F11C
:101D6000080C4FF0010808FA0CF8C2F81080401C6B
:101D70000828CED35460BDE8F0814FF6FF71018092
:101D8000022181700421C1707047024600209368CF
:101D90000B400BB1012000E000207047014688682D
:101DA00080B2704702460020D3680B400BB101207F
:101DB00000E0002070470146C86880B270470161AA
:101DC0007047416170470AB1016100E041617047AD
:101DD000C16070474FF480320A4382618161826141
:101DE00082698269704702460020434B18684FF6AB
:101DF0008073184040EA021008433F4B1860704758
:101E00003E49C8617047F0B50A460023002400210E
:101E1000002500F00046B6F1004F02D1364EF169C0
:101E200001E0354E7168C0F3034583B200F44016FB
:101E3000B6F5401F08D121F070612F4E766826F06C
:101E400070662D4F7E6012E000F48016B6F5801F9C
:101E500006D1032606FA05F4A14341F0706106E0BD
:101E6000460D360103FA06F6B14341F0706122B126
:101E7000460D360103FA06F6314300F00046B6F18E
:101E8000004F02D11C4EF16101E01B4E7160F0BDAC
:101E900030B500228B071C0F0F2303FA04F2164BF8
:101EA00008338C1053F824309343134C08348D10AE
:101EB00044F8253023468C1053F824308C07240F27
:101EC00000FA04F423430C4C08348D1044F82530F8
:101ED00030BD0A49DC31086070470000000801404D
:101EE000000C0140001001400014014000180140A6
:101EF000001C014000200140000001400000204281
:101F0000DF48006840F00100DD490860084640688D
:101F1000DC490840DA49486008460068DA49084068
:101F2000D74908600846006820F480200860084609
:101F3000406820F4FE0048604FF41F00886070473E
:101F4000CF49096821F48031CD4A116011460968F2
:101F500021F480211160B0F5803F03D0B0F5802FCF
:101F60000ED106E0C649096841F48031C44A1160C7
:101F700007E0C349096841F4A021C14A116000E0AB
:101F800000BF00BF704710B50146002200230020AB
:101F90004A11012A02D1BA4C236806E0022A02D172
:101FA000B74C236A01E0B64C636A01F01F020124BA
:101FB00094401C400CB1012000E0002010BD38B559
:101FC000002000900024002500BF3120FFF7DBFF38
:101FD00005460098401C00900098B0F5A06F01D015
:101FE000002DF2D03120FFF7CEFF08B1012400E030
:101FF0000024204638BD01460020A14A106820F088
:10200000F80040EAC10010607047A04908607047BE
:10201000024600209A4B586820F47C1042EA0103E3
:102020001843974B586070479849086670470146B7
:102030000020934A506820F0030008435060704726
:102040008F48406800F00C007047014600208C4A21
:10205000506820F0F00008435060704701460020AF
:10206000874A506820F4E06008435060704701469A
:102070000020834A506820F4605040EAC10050605C
:10208000704729B17E4A527A02437D4B5A7204E06E
:102090007B4A527A82437A4B5A7270477B49D831D5
:1020A0000860704701460020754A506820F440409F
:1020B0000843506070470021714A20321170704A05
:1020C00082F82010012802D004280AD104E001215E
:1020D0006B4A2032117005E00521694A20321170E7
:1020E00000E000BF00BF704769490860704764495D
:1020F000096A0143624A11627047654944390860C0
:10210000704730B500210022002400235C4D6D682B
:1021100005F00C0121B1042905D0082923D105E0DF
:102120005C4D056022E05B4D05601FE0544D6D681D
:1021300005F47012524D6D6805F48034022505EBEC
:1021400092421CB9544D554305600BE04C4D6D68EF
:1021500005F400351DB1504D5543056002E04D4D6D
:102160005543056002E04B4D056000BF00BF444D84
:102170006D6805F0F0010909484D6B5C0568DD40AC
:1021800045603F4D6D6805F4E061090A434D6B5CA5
:102190004568DD4085603A4D6D6805F46051C90AB7
:1021A0003E4D6B5C4568DD40C560354D6D6805F49E
:1021B0004041890B3A4D6B5CC568B5FBF3F5056191
:1021C00030BD29B12E4A526902432D4B5A6104E0B9
:1021D0002B4A526982432A4B5A61704729B1284AD7
:1021E00092690243264B9A6104E0254A9269824330
:1021F000234B9A61704729B1214AD2690243204B8F
:10220000DA6104E01E4AD26982431D4BDA617047ED
:1022100029B11B4AD2680243194BDA6004E0184A1C
:10222000D2688243164BDA60704729B1144A1269AA
:102230000243134B1A6104E0114A12698243104BA6
:102240001A61704712494039086070470F49C864E5
:1022500070470B49C87170470948406A40F0807068
:1022600007494862704701460020054A92680A40C3
:102270000AB1012000E000207047014988727047D0
:10228000001002400000FFF8FFFFF6FE000042428F
:102290008004424200127A0000093D00360000200E
:1022A0004600002010B50446FB48844209D10121B4
:1022B0008803FFF7ADFF00214FF48040FFF7A8FF30
:1022C00032E0F648844209D101214804FFF7ADFF0E
:1022D00000214FF40030FFF7A8FF25E0F0488442CA
:1022E00009D101218804FFF7A0FF00214FF48020CD
:1022F000FFF79BFF18E0EB48844209D10121C80495
:10230000FFF793FF00214FF40020FFF78EFF0BE053
:10231000E548844208D101210805FFF786FF002126
:102320004FF48010FFF781FF10BD2DE9F04786B014
:1023300005460E460024A24600BFA1460027B089EC
:1023400000B100BF2F462C8A4CF6FF700440F08885
:1023500004432C82AC894EF6F3100440B0883189D6
:102360000843718908430443AC81AC8A4FF6FF40AF
:102370000440B0890443AC8201A8FFF7C2FEC648FE
:10238000874202D1DDF810A001E0DDF80CA0A88999
:1023900000F4004040B10AEBCA0000EB0A103168BB
:1023A0004900B0FBF1F807E00AEBCA0000EB0A10A5
:1023B00031688900B0FBF1F86420B8FBF0F004014B
:1023C0002009642101FB1089A88900F4004040B174
:1023D000322000EBC900B0FBF1F000F0070004432D
:1023E00008E0322000EB09106421B0FBF1F000F0AE
:1023F0000F0004432C8106B0BDE8F0874FF416515E
:10240000016000218180C18001810C214181002176
:102410008181704710B502460020108A4FF2FF03F9
:1024200018400B884C8823438C882343CC88234353
:102430001843108210BD0021018041808180C1803D
:10244000704721B1828942F40052828104E082897E
:102450004DF6FF731A4082817047F0B503460024A1
:1024600000260025002040F66A17B94200D100BFBF
:102470001846C1F3421401F01F06012707FA06F5BA
:10248000012C01D10C3004E0022C01D1103000E00D
:1024900014301AB107682F43076002E00768AF43A2
:1024A0000760F0BD1AB1838A0B43838202E0838AFE
:1024B0008B4383827047028A4FF6F0731A40028280
:1024C000028A0A430282704782894FF2FF731A40E0
:1024D000828182890A438281704721B1828942F0D8
:1024E0000202828104E082894FF6FD731A408281E4
:1024F0007047028A4FF6DF731A400282028A0A434B
:102500000282704721B1028A42F48042028204E0D2
:10251000028A4BF6FF731A4002827047C1F3080229
:102520008280704701468888C0F30800704781891F
:1025300041F0010181817047028BD2B20283028B8C
:1025400042EA012202837047028B02F47F42028337
:10255000028B0A430283704721B1828A42F0200233
:10256000828204E0828A4FF6DF731A4082827047CB
:1025700021B1828A42F01002828204E0828A4FF600
:10258000EF731A408282704721B1828A42F00802BA
:10259000828204E0828A4FF6F7731A408282704783
:1025A00021B1828942F40042828103E08289C2F330
:1025B0000E028281704721B1828A42F400628282D7
:1025C00004E0828A4FF2FF731A4082827047828A47
:1025D0004FF6FB731A408282828A0A4382827047D6
:1025E00021B1828A42F00202828204E0828A4FF69E
:1025F000FD731A408282704702460020B1F5007FC9
:1026000000D100BF13880B400BB1012000E0002077
:10261000704701F40072B2F5007F00D100BFCA43D9
:102620000280704770B50246002400230025002078
:1026300040F66A16B14200D100BFC1F3421501F065
:102640001F03012606FA03F3012D02D196893340B8
:1026500006E0022D02D1168A334001E0968A33400B
:102660000C12012606FA04F41688344013B10CB19A
:10267000012000E0002070BD10B50022002340F6CC
:102680006A14A14200D100BF0A1201249440A3B2EF
:10269000DC43048010BD00000038014000440040CD
:1026A00000480040004C00400050004010B5044677
:1026B000FE48844208D10121C014FFF7A9FD002182
:1026C000E014FFF7A5FDC4E0B4F1804F08D101216B
:1026D0000846FFF7AAFD00210120FFF7A6FDB8E09C
:1026E000F348844208D101210220FFF79EFD00211A
:1026F0000220FFF79AFDACE0EE48844208D10121A8
:102700000420FFF792FD00210420FFF78EFDA0E0DA
:10271000E948844208D101210820FFF786FD002105
:102720000820FFF782FD94E0E448844208D10121AB
:102730001020FFF77AFD00211020FFF776FD88E0DA
:10274000DF48844208D101212020FFF76EFD0021DF
:102750002020FFF76AFD7CE0DA48844208D101219D
:102760004014FFF755FD00216014FFF751FD70E0A4
:10277000D548844209D10121C804FFF749FD002151
:102780004FF40020FFF744FD63E0D048844209D1B4
:1027900001210805FFF73CFD00214FF48010FFF7F1
:1027A00037FD56E0CA48844209D101214805FFF7A8
:1027B0002FFD00214FF40010FFF72AFD49E0C54826
:1027C000844208D101214020FFF72FFD0021402045
:1027D000FFF72BFD3DE0C048844208D10121802055
:1027E000FFF723FD00218020FFF71FFD31E0BB48EC
:1027F000844208D101218015FFF717FD0021A015A3
:10280000FFF713FD25E0B648844209D101210804F1
:10281000FFF7FEFC00214FF48030FFF7F9FC18E0D1
:10282000B048844209D101214804FFF7F1FC00219E
:102830004FF40030FFF7ECFC0BE0AB48844208D1CA
:1028400001218804FFF7E4FC00214FF48020FFF70A
:10285000DFFC10BD00220288944B98420ED0994BA9
:1028600098420BD0B0F1804F08D0914B984205D0E0
:10287000904B984202D0904B984204D14FF68F7300
:102880001A404B881A438D4B984207D08C4B984284
:1028900004D04FF6FF431A40CB881A4302808B883E
:1028A00083850B880385814B98420BD0854B9842DA
:1028B00008D08B4B984205D08A4B984202D08A4B65
:1028C000984201D10B7A038601238382704770B549
:1028D000002400220023058C4FF6FE763540058447
:1028E000028C8388048B4FF68F752C40B51E2C40CC
:1028F0000D882C43751E2A400D892A434D882A4392
:102900006A4DA8420BD06F4DA84208D0744DA84222
:1029100005D0744DA84202D0734DA84213D14FF692
:10292000F7752A404D892A434FF6FB752A408D885A
:102930002A434FF6FF652B404FF6FF552B408D89FC
:102940002B43CD892B4383800483CD8885860284E5
:1029500070BD70B5002400220023058C4FF6EF7681
:1029600035400584028C8388048B48F6FF752C4023
:102970004FF6FF452C400D884FF6FF7606EA0525F9
:102980002C434FF6DF752A400D8906EA05152A43C8
:102990004D8806EA05152A43444DA84202D0494D08
:1029A000A8421DD14FF67F752A404D894FF6FF761C
:1029B00006EA05152A434FF6BF752A408D8806EAB8
:1029C00005152A434FF6FF352B404FF2FF752B407C
:1029D0008D8906EA85052B43CD8906EA85052B43BB
:1029E00083800483CD880587028470BD70B5002480
:1029F00000220023058C4FF6FF6635400584028CCB
:102A00008388848B4FF68F752C404FF6FC752C40D5
:102A10000D882C434FF6FF552A400D894FF6FF765F
:102A200006EA05252A434D8806EA05252A431F4D57
:102A3000A84202D0234DA8421DD14FF2FF752A4073
:102A40004D894FF6FF7606EA05252A434FF6FF35F6
:102A50002A408D8806EA05252A434EF6FF752B404D
:102A60004DF6FF752B408D8906EA05152B43CD8960
:102A700006EA05152B4383808483CD8885870284ED
:102A800070BD70B5002200230024058C4EF6FF7641
:102A900035400584038C8488828B48F6FF752A4074
:102AA0004FF6FF452A400D8820E00000002C014031
:102AB0000004004000080040000C004000100040EE
:102AC0000014004000340140004C0140005001401F
:102AD0000054014000180040001C0040002000404D
:102AE0000040014000440140004801404FF6FF769D
:102AF00006EA05252A434DF6FF752B400D8906EAA7
:102B000005352B434D8806EA05352B43FA4DA8427F
:102B100002D0FA4DA84208D14BF6FF752C408D89A2
:102B20004FF6FF7606EA85152C4384808283CD8894
:102B3000A0F84050038470BD828B4FF2FF331A40DF
:102B40008283828B4FF6FF7303EA01231A43828349
:102B50007047F0B50C461546002200210026078C70
:102B60004EF6FF7C07EA0C070784828B018C4FF638
:102B7000FF7707EA043640F6FF473A404FF6FF7703
:102B800007EA05273A434FF6FF7707EA03373A4348
:102B9000D94FB8420ED0D94FB8420BD0B0F1804FC8
:102BA00008D0D74FB84205D0D64FB84202D0D64F42
:102BB000B84206D14DF6FF77394046F48057394385
:102BC00005E047F6FF57394044F480573943828384
:102BD0000184F0BD828B4FF6F3731A408283828B9F
:102BE0000A4382837047F0B50C4615460022002147
:102BF0000026078C4FF6FF6C07EA0C070784828BD0
:102C0000018C4FF6FF7707EA04264FF60C773A401F
:102C10004FF6FF7707EA03172F433A43B64FB84200
:102C20000ED0B64FB8420BD0B0F1804F08D0B44FA1
:102C3000B84205D0B34FB84202D0B34FB84206D124
:102C40004FF6FF57394046F48077394305E04FF29D
:102C5000FF57394044F48077394382830184F0BDC3
:102C6000028B4FF2FF331A400283028B4FF6FF7341
:102C700003EA01231A4302837047F0B50C46154658
:102C8000002200210026078C4FF6EF7C07EA0C0794
:102C90000784028B018C4FF6FF7707EA041640F693
:102CA000FF473A404FF6FF7707EA03373A434FF6BC
:102CB000FF7707EA05273A438F4FB8420ED08F4F70
:102CC000B8420BD0B0F1804F08D08D4FB84205D03C
:102CD0008C4FB84202D08C4FB84206D14FF6DF7706
:102CE000394046F01007394305E04FF65F77394029
:102CF00044F01007394302830184F0BD028B4FF684
:102D0000F3731A400283028B0A4302837047F0B5C3
:102D10000C46154600220021068C4FF6FE773E40F9
:102D20000684028B018C4FF60C7632407E1C06EA3C
:102D300003162E433243704EB0420ED06F4EB04257
:102D40000BD0B0F1804F08D06D4EB04205D06D4E23
:102D5000B04202D06C4EB04206D14FF6FD76314003
:102D600044F00106314305E04FF6F576314044F07A
:102D70000106314302830184F0BD70B505460C465F
:102D80005D4885420ED05D4885420BD0B5F1804F3D
:102D900008D05B48854205D05A48854202D05A483F
:102DA000854200D100E000BF208850B92389A28865
:102DB00061882846FFF7ABFFE1882846FFF79EFFB2
:102DC00025E0208804280AD12389A2886188284622
:102DD000FFF753FFE1882846FFF742FF17E02088FE
:102DE00008280AD12389A28861882846FFF7FBFEBC
:102DF000E1882846FFF7EEFE09E02389A288618872
:102E00002846FFF7A6FEE1882846FFF795FE70BD2D
:102E10002DE9F04105460C4600260127608808B9D7
:102E2000022600E00026A088012801D1022700E048
:102E300001272088A0B92389A28861882846FFF746
:102E400066FFE1882846FFF759FF23893A46314655
:102E50002846FFF712FFE1882846FFF701FF13E03D
:102E60002389A28861882846FFF707FFE188284662
:102E7000FFF7F6FE23893A4631462846FFF747FF1B
:102E8000E1882846FFF73AFFBDE8F0810A884B88C1
:102E90001A438B881A43CB881A430B891A434B89F0
:102EA0001A438B891A43A0F8442070474FF6FF71EC
:102EB000818000210180C180418001727047002122
:102EC000018041808180C180018141818181C181F6
:102ED0007047002101804180012181800021C18053
:102EE000018170470021018041808180C180018182
:102EF0004181818170470000002C01400034014075
:102F00000004004000080040000C004021B102888D
:102F100042F00102028004E002884FF6FE731A407C
:102F20000280704731B1B0F8442042F40042A0F86A
:102F3000442005E0B0F84420C2F30E02A0F844207B
:102F400070471AB183890B43838102E083898B43E5
:102F5000838170478182704741EA0203A0F84830BC
:102F600070471AB183890B43838102E083898B43C5
:102F70008381704701894FF6F872114001817047D3
:102F80000A46002101894FF68F73194011430181D0
:102F9000704730B504460D4629462046FFF7F0FF3E
:102FA000208940F00700208130BD2DE9F041044622
:102FB0000D4616461F46602D06D13B46012231467E
:102FC0002046FFF75AFE05E03B46012231462046E7
:102FD000FFF79DFE29462046FFF7D2FF208940F0EB
:102FE00007002081BDE8F08130B50C460021018941
:102FF000C9B24FF6FF7505EA03251543254329435A
:10300000018130BD2DE9F04105460E461746984630
:10301000002443463A4631462846FFF7E5FF2C890F
:103020004FF6F870044044F007044FF68F700440E8
:1030300044F070042C81BDE8F081F0B504460D46E3
:1030400016461F463B46324629462046FFF7CCFF30
:10305000208940F480402081F0BD01858282704744
:103060000A46002101884FF68F73194011430180F1
:103070007047F0B50C4615461E460021002200237D
:103080000189028B038C4FF6F877394021434FF6C4
:10309000FC473A4040F201173A434FF6DD773B4098
:1030A0004FF6FF7707EA06172F433B430181028360
:1030B0000384F0BD0A460021018B4FF68F7319403F
:1030C0001143018370470A460021018B48F6FF73C4
:1030D00019404FF6FF7303EA022319430183704737
:1030E0000A460021818B4FF68F731940114381836B
:1030F00070470A460021818B48F6FF7319404FF64E
:10310000FF7303EA022319438183704721B10288C8
:1031100042F08002028004E002884FF67F731A407A
:103120000280704721B1828842F00402828004E06C
:1031300082884FF6FB731A408280704721B18288E3
:1031400042F00802828004E082884FF6F7731A404A
:103150008280704721B1828842F00102828004E0BF
:1031600082884FF6FE731A40828070470A4600211B
:10317000018B4FF6F77319401143018370470A46DC
:103180000021018B4FF2FF7319404FF6FF7303EAE2
:1031900002231943018370470A460021818B4FF6B1
:1031A000F77319401143818370470A460021818BD0
:1031B0004FF2FF7319404FF6FF7303EA02231943DE
:1031C000818370470A460021018B4FF6FB7319403B
:1031D0001143018370470A460021018B4FF6FF33EC
:1031E00019404FF6FF7303EA022319430183704726
:1031F0000A460021818B4FF6FB73194011438183EE
:1032000070470A460021818B4FF6FF3319404FF675
:10321000FF7303EA02231943818370470A460021A2
:10322000018B4FF67F7319401143018370470A46A3
:103230000021018BC1F30E014FF6FF7303EA022355
:103240001943018370470A460021818B4FF67F7333
:1032500019401143818370470A460021818BC1F3D5
:103260000E014FF6FF7303EA02231943818370476F
:103270000A460021018C4FF6FD7319401143018469
:1032800070470A460021018C4FF6F773194011432D
:10329000018470470A460021018C4FF6DF73194004
:1032A0004FF6FF7303EA02131943018470470A467D
:1032B0000021018C4FF67F7319404FF6FF7303EA2C
:1032C00002131943018470470A460021018C4FF60E
:1032D000FF5319404FF6FF7303EA02231943018499
:1032E00070470A460021018C4FF2FF7319404FF6D8
:1032F000FF7303EA02231943018470470A46002141
:10330000018C4DF6FF7319404FF6FF7303EA023349
:1033100019430184704730B5002301248C40A3B2C7
:10332000048C9C430484048C02FA01F5ADB22C4356
:10333000048430BD30B5002304248C40A3B2048C37
:103340009C430484048C02FA01F5ADB22C4304843E
:1033500030BD70B503460020002418461830012502
:103360008D40ACB21D8CA5431D8409B1082909D13B
:1033700000EB6100056825F07005056005681543E0
:1033800005600EE00D1FC5F34E052844056825F4C1
:10339000E045056005684FF6FF7606EA02263543EC
:1033A000056070BD21B1028842F00202028004E093
:1033B00002884FF6FD731A400280704721B10288DF
:1033C00042F00402028004E002884FF6FB731A40C8
:1033D0000280704721B1828842F08002828004E03E
:1033E00082884FF67F731A408280704702884FF6BA
:1033F000F7731A40028002880A430280704782886D
:103400004FF68F731A40828082880A438280704709
:1034100002894FF6F8731A40028102890A43028139
:10342000704702894FF67F731A40028102890A436E
:10343000028170478184704781857047818670471B
:103440000187704781877047A0F840107047028855
:103450004FF6FF431A40028002880A4302807047F9
:103460000146888E70470146088F70470146888F55
:1034700070470146B1F8400070470146888C70479C
:103480000146088D704702460020138A0B400BB19D
:10349000012000E000207047CA430282704730B527
:1034A0000246002000230024158A05EA01039589BD
:1034B00005EA010413B10CB1012000E0002030BD89
:1034C000CA430282704700004FF48071FE4A516186
:1034D00049005161FD4908608021516111618900F5
:1034E000116170474FF48071F74A116149005161D1
:1034F000F6490860802151611161890011617047AE
:1035000000B503461846FFF7EDFF00BD10B50446B1
:103510000B462046FFF7D8FF1846FFF7E3FF10BD24
:1035200000B5EB49087AFFF7CFFF00BD10B50346A1
:103530000C46E749887AFFF7C7FF1812FFF7D2FF5A
:10354000D8B2FFF7CFFF0120FFF7CCFF3F20FFF7F6
:10355000C9FFDF49087BFFF7B7FF2012FFF7C2FF63
:10356000E0B2FFF7BFFF0120FFF7BCFFDF20FFF74E
:10357000B9FFFFF7D5FF10BD30B504460D4629460B
:103580002046FFF7D3FFD3480088FFF7ABFF30BDDD
:1035900070B504460D461646CD49887AFFF794FF6C
:1035A0002012FFF79FFFE0B2FFF79CFF3012FFF7FA
:1035B00099FFF0B2FFF796FFC549087BFFF784FF3C
:1035C0002812FFF78FFFE8B2FFF78CFF1812FFF702
:1035D00089FFD8B2FFF786FFFFF7A2FF70BD30B5B5
:1035E00005460024BA484088401E83B2B848008887
:1035F000401E82B200210846FFF7CAFF00BF03E069
:103600002846FFF76FFF641CB1480088B04949881D
:103610004843A042F4D830BD08B501211920FEF777
:10362000DDFD0121AC48FEF7EEFB4FF4FC60ADF888
:10363000000010208DF8030003208DF80200694679
:10364000A148FEF70FFB4FF4F8619F48FEF7B7FB68
:103650004FF6FF70ADF8000069469C480C38FEF745
:1036600001FB4FF6FF7199480C38FEF7A8FB08BD27
:1036700010B52020944948616420FDF710FF2020F8
:10368000914908613220FDF70AFF10BD00B52A20DC
:103690008F4948812B2088812C2008810120887146
:1036A0004FF4F07008804FF4A0704880A8213620B5
:1036B000FFF72CFF00BD10B5FFF7AEFFFFF7D8FFF7
:1036C000F920FFF701FF0020FFF70CFF0820FFF7AC
:1036D00009FFC020FFF7F8FE1920FFF703FF1A20AB
:1036E000FFF700FFC120FFF7EFFE4520FFF7FAFECE
:1036F0000020FFF7F7FEC220FFF7E6FE3320FFF7BA
:10370000F1FEC520FFF7E0FE0020FFF7EBFE2820CA
:10371000FFF7E8FEB120FFF7D7FEA020FFF7E2FE9B
:103720001120FFF7DFFEB420FFF7CEFE0220FFF7E7
:10373000D9FEB620FFF7C8FE0020FFF7D3FE4220D7
:10374000FFF7D0FE3B20FFF7CDFEB720FFF7BCFE12
:103750000720FFF7C7FEE020FFF7B6FE1F20FFF7A8
:10376000C1FE2520FFF7BEFE2220FFF7BBFE0B2087
:10377000FFF7B8FE0620FFF7B5FE0A20FFF7B2FEFE
:103780004E20FFF7AFFEC620FFF7ACFE3920FFF753
:10379000A9FE0020FFF7A6FE0020FFF7A3FE0020F1
:1037A000FFF7A0FE0020FFF79DFE0020FFF79AFE26
:1037B0000020FFF797FEE120FFF786FE1F20FFF7AE
:1037C00091FE3F20FFF78EFE3F20FFF78BFE0F207C
:1037D000FFF788FE1F20FFF785FE0F20FFF782FE10
:1037E0004620FFF77FFE4920FFF77CFE3120FFF7E0
:1037F00079FE0520FFF776FE0920FFF773FE032010
:10380000FFF770FE1C20FFF76DFE1A20FFF76AFE1F
:103810000020FFF767FEF120FFF756FE3620FFF786
:1038200061FE0420FFF75EFE0020FFF75BFE3C20F8
:10383000FFF758FE0F20FFF755FE0F20FFF752FE4F
:10384000A420FFF74FFE0220FFF74CFEF220FFF707
:103850003BFE1820FFF746FEA320FFF743FE122091
:10386000FFF740FE0220FFF73DFE3220FFF73AFE51
:103870001220FFF737FEFF20FFF734FE3220FFF75C
:1038800031FE0020FFF72EFEF420FFF71DFE402042
:10389000FFF728FE0020FFF725FE0820FFF722FE95
:1038A0009120FFF71FFE0420FFF71CFEF820FFF712
:1038B0000BFE2120FFF716FE0420FFF713FE362033
:1038C000FFF702FE482009E0001001400C0C014007
:1038D000540100204A00002000023000FFF702FEE1
:1038E0003A20FFF7F1FD5520FFF7FCFD1120FFF70F
:1038F000EBFD7820FDF7D3FD2920FFF7E5FDFFF76D
:10390000C5FE0120034908604FF6FF70FFF767FE10
:1039100010BD0000A8012242704710B5431C02E010
:1039200010F8011B71B18107FAD14FF0013202C8C2
:103930008C1A8C4314EAC211F9D0C01A0A0603D0BB
:10394000C01E10BDC01A10BD0A0401D0801E10BDDB
:103950000902FCD0401E10BD704770477047704789
:1039600000487047640100207546FFF7F9FFAE4636
:1039700005006946534620F00700854618B020B57B
:10398000FDF768FEBDE820404FF000064FF000074D
:103990004FF000084FF0000B21F00701AC46ACE8F7
:1039A000C009ACE8C009ACE8C009ACE8C0098D4664
:1039B000704710B50446AFF300802046BDE81040C4
:1039C000FCF7FDBB21F00042A2F16052B2F5801F6E
:1039D00001F0004328BFD2F17F6C0BD95FEA001CD5
:1039E00043EAC20242EB507018BF704728BF20F074
:1039F00001007047B2F5801FBCBF184670474FEA00
:103A0000410C1CF5001F02D2084600F083BB70B5C4
:103A100000F050FA00000089FFF7F6BF4FF00040B9
:103A2000A0F58000704700002DE9C04130B4DFF8F8
:103A3000A0C23CEA111418BF3CEA131400F0EC8059
:103A400081EA03051CEA111444EAD57418BF1CEA84
:103A5000131500F0C780A4EB05044FF0004545EABC
:103A6000C12145EAC32341EA505143EA525304F1CC
:103A70007F74994204F500344FEAC0204FEAC22215
:103A800008BF904200F09C804FEA13650FF2401689
:103A9000765D4FEA134506FB05F7C7F1807706FB15
:103AA00007F74FEAD737A7FB03687642C8F5803897
:103AB000A7FB06CE38BFA8F1010807FB08E64FF0C8
:103AC000000EA6FB028CE6FB03CEDCF1000CCEF16F
:103AD000004E38BFAEF1010EA6FB0C584FF00007A8
:103AE0004FF00005E6FB0E87A1FB08C6A0FB07CE42
:103AF00016EB0E0645F10005E1FB076515F1E04EFA
:103B00007EBFA4F580345FEA46066D4116F180075A
:103B100045F100054FEA17274FEA066647EA0567B1
:103B2000A6F1DE46B6F1805F4FEA15251FD938466B
:103B300024F0010C05EBC471BCF1FE6F01EB0C111C
:103B400002D8F0BCBDE8008124425CBF01F5801EB4
:103B50009EEAC47F02D4F0BCBDE80081244238D480
:103B6000F0BCA1F1C041BDE8004100F0F1B94FEA5D
:103B7000D22242EA43524FEAD323A7FB02864FEAFE
:103B8000D02040EA415007FB03661EEA0E0F4FEAC1
:103B9000D12105FB026658BFA6EB0056B6EB0056D6
:103BA0004FEA520E4EEAC37E18EB0E0E56EB530E42
:103BB000BDD518EB02085E417F1C55F10005B6E744
:103BC0004FF480154FF000074FF000064FF000084B
:103BD000ADE7F0BC4FF0000001F1C04101F0004141
:103BE000BDE8008111EA0C1F0CEA131500D00CE0AF
:103BF00013EA0C1F00F025804FF00000F0BC81EAB2
:103C0000030101F00041BDE80081F0BCBDE80041C6
:103C100081EA030100F09CB9F0BCBDE8004170B539
:103C200000F048F9097EFC3E00F007B881EA030184
:103C30004FF0000001F00041704781EA030100F0FD
:103C400087B9F0BCBDE800414FF000002149704742
:103C5000FFFDFBF9F7F5F4F2F0EEEDEBE9E8E6E451
:103C6000E3E1E0DEDDDBDAD8D7D5D4D3D1D0CFCDD8
:103C7000CCCBCAC8C7C6C5C4C2C1C0BFBEBDBCBB11
:103C8000BAB9B8B7B6B5B4B3B2B1B0AFAEADACAB0C
:103C9000AAA9A8A8A7A6A5A4A3A3A2A1A09F9F9EE6
:103CA0009D9C9C9B9A999998979796959594939398
:103CB000929191908F8F8E8E8D8C8C8B8B8A89892F
:103CC00088888787868585848483838282818180B2
:103CD0000000FF070000F87F4FEA1153A3F580634F
:103CE000D3F11E03A8BFD3F1200C08DB4FF0004234
:103CF00042EAC12252EA505232FA03F070470942B6
:103D00000BD4102BC4BF0020704703F5787CBCF1A6
:103D1000FF3F05D04FF0FF3070474FF00000704775
:103D200070B500F0C7F800BF4992248000207047AA
:103D3000F0E710F0004248BF4042B0FA80F310FABA
:103D400003F10AD0C3F11D0303F580634FEA41502C
:103D500002EB035202EBD12170474FF00000704795
:103D6000DFF848C170B51CEA111E1EBF1CEA13150E
:103D70009EEA0C0F95EA0C0F00F06F8081EA0304B5
:103D800023EA4C134EEAD47E21EA4C1141F480110F
:103D900043F48013AE44A1FB024CA0FB0365AEF1DB
:103DA0007F7E361955EB0C05A1FB034C4CF100034B
:103DB000A0FB021C16EB0C06654153F100030942FF
:103DC00018BF46F0010613F4007F0BD14FEA033110
:103DD0004FEA0530340341EA155140EA16506FF0BE
:103DE00003020AE04FEAC3214FEAC520F40241EA88
:103DF000555140EA56506FF0020202EB2E4201EBA1
:103E0000025585EACE710AD05FEA440C18BF24F04F
:103E1000004450F1000041F1000120EAD47040F26A
:103E2000FE7C624500D270BDA84214BF4FF08044B2
:103E30004FF04044002E08BF0024BEF1806FA8BFA1
:103E4000A1F1C041BDE8704080F282804FF00000D7
:103E500001F1C04101F0004170479EEA0C0F0CEAED
:103E6000131518BF95EA0C0F06D04FF0000081EA39
:103E7000030E0EF0004170BD00F01CF88900013EF9
:103E800000F007B800F009B84FEA430C5FEA5C5C49
:103E900008D081EA030100F05BB84FEA410C5FEA09
:103EA0005C5CF6D14FF00000014970470000FF074D
:103EB0000000F87F0EF1020E2EF0030E5EF8046B88
:103EC000364205D4012A43EB030515F5001F12D82D
:103ED000012841EB010C1CF5001F0CD80ED14FEA54
:103EE000D17C15F5001F0CEB4C0C0CF1020C08BF3B
:103EF0004CEBD37C04E04FF0080C01E04FEAD37C9C
:103F00000CEB4C0526FA05F606F00706B6F1040C94
:103F100006D20EEB860CBDE870404CF0010C6047F9
:103F2000DFE80CF0090B02024FF000414FF00000F7
:103F3000A1F5002170BD19461046012851EB01047E
:103F400018BFD4F5001484BF002001F0004170BDFB
:103F50000808A0F500114FEA3101704790EA010FFF
:103F600048BF81F0004100F1E280421A3CBF801A54
:103F700089184FEAD0524FF07F4C1CEA410FA2EB58
:103F8000D15318BF9CEA026F00F03B804FF0004C09
:103F90004CEA00204CEA012121FA03FC10EB0C0C46
:103FA0001ED202F1FF325FEA1C2040EBC25038BF44
:103FB00070471CF07F0F4FEA400C18BFBCF17F4FD9
:103FC00038BF7047C3F12003994008BF20F00100BB
:103FD000BCF17F4F38BF7047A0F1C04000F09AB8E5
:103FE0004FEA3C00000A40EBC25028BF1CF0FF0F14
:103FF0004FEA400CE6D018BFBCF17F4F38BF704786
:10400000EAE79CEA026F05D010EA5C0F08BF00F0F7
:104010000040704710B500F037F800BF64FBBE3EAB
:1040200041000B0ED3F19E0208D950F400034FEA71
:10403000032323FA02F048BF4042704710B500F056
:1040400023F800BF49922480002070476FF000429F
:1040500082EA20007047000010F0004148BF404253
:10406000B0FA80F310FA03F2C3F19D030BD051EACA
:10407000C35101EB1220530638BF704700F1010015
:1040800008BF20F0010070470EF1020E2EF0030E63
:104090005EF8044B244204D44FEA4102B2F17F4F50
:1040A00011D84FEA4003B3F17F4F0CD80ED14FEA3D
:1040B000D07CB2F17F4F0CEB4C0C0CF1020C08BF22
:1040C0004CEBD17C04E04FF0080C01E04FEAD17CCE
:1040D0000CEB4C0324FA03F404F00704B4F1040CD1
:1040E00006D20EEB840CBDE810404CF0010C60478A
:1040F000DFE80CF0070802024FF00040A0F5800056
:1041000010BD0846420018BFD2F1807288BF00F08F
:10411000004010BDFF2141EAD050C00570470000AB
:1041200090EA010F48BF81F000413FF51EAF421AEF
:1041300004D882F00042A0EB020011444FEAD052B2
:104140004FF07F4C1CEA410FA2EBD15318BF9CEA01
:10415000026F4AD04FF0004C4CEA00204CEA01219B
:1041600021FA03FCB0EB0C0C0FD412F0FE0F36D08A
:104170005FEA4C001DD5001240EBC25038BF7047BB
:104180001CF03F0F18BF70470BE0A2F101025FEA7D
:104190001C2040EBC25038BF70471CF07F0F18BF87
:1041A0007047C3F12003994014BF401E20F0010066
:1041B000704780084FEA122308BF7047B0FA80FCAE
:1041C000A2EB0C02CCF1280C60FA0CF093EA122F4F
:1041D00004BF00EBC25070474FEAC3707047130A28
:1041E0005FEADC1008BF7047F6E79CEA026F04D074
:1041F00010EA5C0F08BF0020704710B5FFF744FFBE
:1042000040DFF63E81F000407047000000000000F3
:104210000000000000000000040404040404000482
:10422000000000140A0A0000000000000000000066
:1042300014143F140A3F0A0A000000041E15050664
:104240000C14150F0400000012150D0A142C2A126C
:1042500000000000040A0A1E1515093600000002BD
:104260000201000000000000000000201008080803
:1042700008080810200000020408080808080804BC
:10428000020000000004150E0E15040000000000DE
:104290000404041F040404000000000000000000E7
:1042A00000000002020100000000001F00000000EA
:1042B00000000000000000000000000200000010EC
:1042C0000808080404020202010000000E11111186
:1042D0001111110E00000000040604040404040E71
:1042E000000000000E1111080402011F0000000070
:1042F0000E11100C1010110E00000000080C0A0A1C
:10430000091E0818000000001F01010F1010110EF7
:10431000000000000E09010F1111110E0000000035
:104320001F09080404040404000000000E11110E0B
:104330001111110E000000000E1111111E10120EAD
:104340000000000000000400000000040000000065
:104350000000000400000004040000201008040213
:10436000040810200000000000001F00001F0000D3
:1043700000000002040810201008040200000000E1
:104380000E11110804040004000000000E1119159C
:10439000151D011E0000000004040C0A0A1E123341
:1043A000000000000F12120E1212120F0000000087
:1043B0001E1101010101110E000000000F12121266
:1043C0001212120F000000001F120A0E0A02121F22
:1043D000000000001F120A0E0A020207000000007F
:1043E0001C1201013911120C000000003312121EC0
:1043F00012121233000000001F0404040404041FFE
:10440000000000003E08080808080809070000002E
:1044100037120A060A0A12370000000007020202D9
:104420000202223F000000001B1B1B1B1515151567
:10443000000000003B1216161A1A121700000000A6
:104440000E1111111111110E000000000F12120EA9
:1044500002020207000000000E1111111117190EBF
:10446000180000000F12120E0A121237000000008E
:104470001E1101060810110F000000001F15040492
:104480000404040E00000000331212121212120C67
:10449000000000003312120A0A0C0404000000009D
:1044A0001515150E0A0A0A0A000000001B0A0A0464
:1044B000040A0A1B000000001B0A0A040404040E7C
:1044C000000000001F0908040402121F0000001C65
:1044D00004040404040404041C0000020202040492
:1044E000080808100000000E080808080808080856
:1044F0000E0000040A0000000000000000000000A0
:104500000000000000000000003F00040000000068
:1045100000000000000000000000000C121C123C13
:10452000000000000302020E1212120E0000000032
:104530000000001C1202021C000000001810101CD9
:104540001212123C000000000000000C121E021C9F
:10455000000000003804041E0404041E00000000D3
:104560000000003C120C021E221C00000302020E7E
:104570001212123700000000040000060404040EAA
:10458000000000000800000C0808080808070000E8
:104590000302023A0A0E1237000000000704040466
:1045A0000404041F000000000000000F151515157D
:1045B000000000000000000F12121237000000007F
:1045C0000000000C1212120C000000000000000F8E
:1045D0001212120E020700000000001C1212121C20
:1045E000103800000000001B060202070000000057
:1045F0000000001E020C101E000000000004040E4B
:1046000004040418000000000000001B1212123CF9
:104610000000000000000037120A0C040000000037
:1046200000000015150E0A0A000000000000001B23
:104630000A040A1B0000000000000037120A0C04E4
:10464000040300000000001E0804041E00000018FF
:1046500008080804080808081800080808080808D6
:1046600008080808080800060404040804040404F0
:1046700006000225180000000000000000000000F5
:10468000000000000000000000000000000000002A
:10469000000808080808080800001818000000486A
:1046A0006C24120000000000000000000000000068
:1046B000002424247F1212127F1212120000000024
:1046C000081C2A2A0A0C1828282A2A1C0808000074
:1046D0000022251515152A585454542200000000B4
:1046E000000C1212120A76252911916E00000006A4
:1046F000060403000000000000000000000000406D
:1047000020101008080808080810102040000002B7
:10471000040808101010101010080804020000000F
:10472000000008086B1C1C6B08080000000000005B
:104730000000080808087F080808080000000000BA
:104740000000000000000000000006060403000056
:10475000000000000000FE0000000000000000005B
:10476000000000000000000000000606000000003D
:1047700080404020201010080804040202000000BD
:1047800000182442424242424242241800000000E3
:1047900000080E08080808080808083E0000000085
:1047A000003C4242422020100804427E00000000EB
:1047B000003C4242201820404042221C00000000E1
:1047C00000203028242422227E20207800000000AF
:1047D000007E0202021A26404042221C0000000015
:1047E00000382402021A2642424224180000000027
:1047F000007E2222101008080808080800000000A7
:10480000003C4242422418244242423C0000000044
:1048100000182442424264584040241C000000001A
:104820000000000018180000000018180000000028
:10483000000000000008000000000008080400005C
:10484000004020100804020408102040000000006E
:10485000000000007F0000007F000000000000005A
:10486000000204081020402010080402000000008C
:10487000003C424246402010100018180000000082
:10488000001C225A555555552D42221C000000008F
:10489000000808181414243C224242E700000000DB
:1048A000001F2222221E22424242221F000000003C
:1048B000007C4242010101010142221C0000000073
:1048C000001F2242424242424242221F0000000098
:1048D000003F4212121E12120242423F000000002C
:1048E000003F4212121E12120202020700000000D4
:1048F000003C2222010101712122221C0000000043
:1049000000E7424242427E42424242E7000000004B
:10491000003E0808080808080808083E00000000D3
:10492000007C10101010101010101010110F00004B
:10493000007722120A0E0A121222227700000000CB
:1049400000070202020202020202427F000000008F
:104950000077363636362A2A2A2A2A6B00000000CB
:1049600000E346464A4A5252526262470000000043
:10497000001C2241414141414141221C00000000F4
:10498000003F424242423E02020202070000000093
:10499000001C2241414141414D53321C6000000046
:1049A000003F4242423E1212222242C70000000053
:1049B000007C4242020418204042423E00000000B7
:1049C000007F4908080808080808081C00000000C3
:1049D00000E74242424242424242423C0000000062
:1049E00000E74242222424141418080800000000A2
:1049F000006B4949494955553622222200000000E2
:104A000000E7422424181818242442E7000000007C
:104A100000772222141408080808081C000000006F
:104A2000007E2120101008040442423F000000785C
:104A3000080808080808080808080808780000009E
:104A40000202040408080810102020204040001E24
:104A50001010101010101010101010101E00003840
:104A60004400000000000000000000000000000002
:104A700000000000000000000000000000FF000631
:104A8000080000000000000000000000000000001E
:104A900000000000003C4278444242FC000000005C
:104AA00000030202021A26424242261A00000000B7
:104AB00000000000003844020202443800000000F8
:104AC0000060404040784442424264D80000000008
:104AD00000000000003C427E0202423C0000000058
:104AE00000F08808087E08080808083E000000005A
:104AF00000000000007C22221C023C42423C0000DC
:104B000000030202023A4642424242E7000000002D
:104B1000000C0C00000E08080808083E0000000009
:104B2000003030000038202020202020221E0000ED
:104B3000000302020272120A16122277000000001D
:104B4000000E0808080808080808083E00000000D1
:104B500000000000007F9292929292B70000000045
:104B600000000000003B4642424242E700000000D5
:104B700000000000003C42424242423C0000000073
:104B800000000000001B26424242221E02070000D5
:104B900000000000007844424242447840E00000B7
:104BA0000000000000774C040404041F0000000013
:104BB00000000000007C42023C40423E0000000039
:104BC00000000008083E080808080830000000003F
:104BD0000000000000634242424262DC000000002C
:104BE0000000000000E74224241408080000000030
:104BF0000000000000EB494955552222000000004A
:104C000000000000007624181818246E0000000030
:104C10000000000000E742242414180808070000E0
:104C200000000000007E22100808447E000000C042
:104C3000202020202010202020202020C000101024
:104C4000101010101010101010101010101000067E
:104C500008080808081008080808080806000C32A8
:104C6000C200000000000000000000000000C9EECB
:104C7000000027FC140414A4811042084040104096
:104C800017FC2040E0E0215022482C462040004004
:104C9000DBDA11041124112411241124FD24112420
:104CA00011241124112411241D24E124422402047E
:104CB0000404CAD00200010000007FFC01000100D2
:104CC00001003FF82108210821082108212821108E
:104CD00001000100C8AB0000000001800240043068
:104CE000180860061FF90100010001003FF80100EB
:104CF000010001007FFEB6AF0000000000203E2052
:104D0000007C002200227F22102210221222122276
:104D1000224223423D82009CB5E7000001000100D1
:104D20001FF0610C410441047FFC41044104410433
:104D30007FFC01000102010201FCD7D3000000004A
:104D40003FF8001000600080010000807FFE0040FE
:104D5000004000200020002018400780BCBC10202C
:104D60001020102013FEFC201020102015FC1884A9
:104D70003088D04810501020105051882606CAF5AF
:104D800001000120011001107FFC03800540054057
:104D900009201110210841048102010001000100D5
:104DA000D3D002000200FFFE040004000FF0081040
:104DB00018102FF0481088100FF008100810085035
:104DC0000820CFDE00007BF84A08520853F862083A
:104DD00052084BF84A444A486A30522042104288EE
:104DE00043064200B9AB00800480048008400840BC
:104DF00010202010420882060400044008201020E1
:104E00003FF010100000CBBE00003FF80008000883
:104E10007FE8000800081F88108810881088108814
:104E20001F88108800280010BBB600800080FC801E
:104E300004FC050449082A401440104028A024A07E
:104E400045108110020804040802D3AD0000208040
:104E5000133C122402240224F2241224122412B439
:104E6000132812201020282047FE0000C4FA090051
:104E7000090011FC3204544899501148124414445A
:104E80001140108002005104511290120FF0B4BF73
:104E900000000020102013FE202026244A247A241B
:104EA0001224222423FC7C20002204227822003CAD
:104EB000C9AB0000000004000FF0102020207FFC90
:104EC00020842084208420843FF8200020022002B7
:104ED0001FFECCEE00000000204023FE204079FCA5
:104EE000220423FC220423FC220423FC3A0465FA56
:104EF00001980204B3E40000010001007FFE0220DB
:104F00000410040808043FFC044204400440044226
:104F100008421042607EBED800000000207E3E8025
:104F20004880488048FE48827F8208820C8214FABA
:104F300012842280218040FED0CE000000007F84B9
:104F40002208223022C0220222047FC8223022C23C
:104F500022022204220822304040BBAD00000000A3
:104F60007FFE00000FF011101110111051125FF2AE
:104F70005112511251124FF240027FFCD4B2000084
:104F800000007FFE47E24812481247E24FF25012FB
:104F900050125112511242924472580A3FFCCDBC39
:104FA000000000003FFE440247F24C225362408260
:104FB00043625E1A41824062430240C240223FFC8B
:104FC000C6AC000000402040204020403FFE2000B2
:104FD000200020003FE02010201020102010401062
:104FE0004010CFD4000000003FFC200420043FFC10
:104FF000200420041FF824441448144814480C507A
:1050000004407FFECABE000000003FFC000000001C
:1050100000007FFE0080089008881088108420849B
:10502000208240820780B2CB0000002008207FFE53
:10503000002000783F881108089009207FFE018039
:1050400003400D30310C4002B5A5000000100810DF
:1050500004203FF8210421043FFC210421043FF8EF
:1050600001007FFE010001000100D6D00000010018
:10507000010001003FFC210421042104210421043A
:1050800021043FFC0100010001000100D3A2000047
:10509000000008207FFE0820092001003FF82108B9
:1050A000210821081FF4014002200C10700ECEC40C
:1050B00000000100010000803F7C0810081004106F
:1050C0000420022002400180018002601C18E006DA
:1050D000D7DB00000000102011FE2202220249FC52
:1050E0005800300013FE2528792401240D24722253
:1050F00002A2BACF0000000001800240043018086C
:1051000060061FF800001FF820042004200420047B
:1051100020041FF8C1C10000010001007FFE000053
:105120003FF820083FF83FF8400647C248240820CF
:1051300008221022603EB6C80000000000803FFE3A
:1051400044105FFC4410441043F040005FF84408F2
:10515000423041C04360BC1EB2E20000000067C2A2
:10516000145205520552C552255205520552155288
:105170001752228222424442483ECAD40000000014
:105180002014101417FE00120010601013F010907D
:1051900010901090149214EA1F0A0006B3CC00007D
:1051A000000019FE7202120212027DFC18001BFEA2
:1051B0003420502053FE10201020102013FED0F277
:1051C0000000000000803FFE400047FC42084130E4
:1051D00040C05FFE4042404240444048404044405E
:1051E000B5F70000000023FE122202FA0222E2229A
:1051F00012FE1272128A128A128A16BA1A42120207
:10520000040EB9E2000001000104110809080910A8
:1052100009207FFE04400440044004400842084244
:105220001042607CB0E60000000048FE49004900E2
:1052300049007EFE41824144794445284528451075
:10524000452846440382C8A800001000100013FC43
:105250007D041104190418843488504850501020DB
:105260001050108813041402CBF9000000003F7C9A
:10527000204020403E40227E2244224422443E845C
:1052800020842084408441044204C9EE00000000D0
:1052900000001000000800080C7FFC04401001C84A
:1052A000A002186042301832231812C30014030001
:1052B00004030C047FF0080F80080B40781360187B
:1052C000332018631818831C1903081803000003FF
:1052D00000000000DBDA00000000000004100C04F5
:1052E000180C04108C04108C04108C04108C04D046
:1052F0008C3F108C04108C04108C04108C04108CC7
:1053000004108C04108C05F08C0E208C78208C20DE
:10531000408C00808C01000C02000C000000CAD000
:105320000000000000000030000018000018080015
:10533000001C1FFFE000180000182007FFF00418F1
:105340002004182004182004182004182004182011
:105350000418200418200418200418E00418400041
:105360001800001800000000D6D000000000000067
:1053700000000000000000180000180000180000E5
:1053800018003FFFFE301806301806301806301897
:10539000063018063FFFFE301806001800001800FF
:1053A00000180000180000180000000000000000B5
:1053B0000000CEC400000000000000000000380023
:1053C000001C00000600FFFFFF060030060030034F
:1053D00000600300600180C000C18000E30000366F
:1053E00000001C0000770003C1E01E003C600007C5
:1053F000000000000000000000000000B2E2000019
:105400000000000000000000000040000321FF3306
:10541000398333118333019B33C19B33719B331920
:105420009B33019B33019B33119B3319B3333030D2
:1054300033306C0330C6036383032E01BE000000CB
:10544000000000000000CAD40000000000000000BE
:10545000000000004000D83000CE1800C21C00C080
:1054600001FFFF0000C0F800C01800C019FFC018FD
:1054700018401818601918601B18611E18311C1F7D
:10548000B139F01910000F0000000000000000000A
:10549000D7D6000000000006000000030000000056
:1054A000C0000001C0C0000107C00001FF00021FD2
:1054B000FE0007F01C0007C070000F00E0000E03A4
:1054C000F0001C0FF0003C0F70003C00E0001800E2
:1054D000C0000000C0000000C0000000600000002C
:1054E0002000000037000001FF00007FF80007F8EF
:1054F00030001F8030000080300000C030000060AD
:1055000060000018E000000FC0000006000000006E
:105510000000CCE50000000000000000000000C01A
:10552000000000E0002001B800703FF80061FFC0FB
:1055300000C3030001C60600038C060003080C002C
:1055400006080C000E18183F1E101BF31F903F0793
:1055500000803C1C0190707C019060FE01A0C3F8AB
:1055600001A00FD803A0081803600018034000181A
:1055700003C0001803800018030000180000001882
:1055800000000010000000300000003000000000AB
:1055900000000000B2E20000000000000000000077
:1055A000000000000000020C1008071FF80403BFF1
:1055B000F00201BC300303EC3003015C600300D84F
:1055C000600300D860038098620361B8430771B13B
:1055D0004306313243063376C3063A64C7063EECCF
:1055E000C0063E78C0063C3040067C70000678E07D
:1055F00060067BFFF006F7C00006E40000064000EE
:105600000006000000060000007C00008FF0000093
:105610007C0000000000CAD4000000000000000070
:105620000000000000003F0000007F8000000180BB
:10563000000000C0000000C0000000CE038000CFCA
:10564000FFC000DD41800FFE0007FFFC000C00F0F2
:1056500000180FC03E19FF40F311BC6083307FE09B
:1056600003B1FE200333802003700030036000107C
:105670000360001807C0000C07C000040780000288
:105680000100000300000001000000000000000015
:105690000000000000000000B856000800000020D4
:1056A000500000006C01000808570008500000205E
:1056B00078070000880100080000010000A24A04E9
:1056C00000000000000000000102030406070809B2
:1056D00000000000000000000000000000000000CA
:1056E00000000000000000000000000000000000BA
:1056F0000000010203040102030406070809020472
:0857000006080000FFFF000095
:0400000508000131BD
:00000001FF
